:020000040800F2
:10000000200F00205D01000889760008795900085A
:1000100000000000000000000000000000000000E0
:10002000000000000000000000000000D97A000875
:100030000000000000000000C9770008D17E000821
:100040006F010008000000006F0100086F01000848
:100050006F0100086F010008211300086F010008FC
:10006000000000005112000861120008251200086B
:10007000E50900086F0100086F010008000000009A
:100080006F010008817F0008917F00086F01000860
:100090006F0100086F0100086F010008E5590008B2
:1000A0000D5A00086F0100086F010008898F0008D1
:1000B0006F0100086F01000800F002F800F03EF840
:1000C0000CA030C8083824182D18A246671EAB466D
:1000D00054465D46AC4201D100F030F87E460F3EFA
:1000E0000FCCB6460126334200D0FB1AA246AB46DF
:1000F000334318473C9600005C960000103A02D348
:1001000078C878C1FAD8520701D330C830C101D5B8
:1001100004680C60704700000023002400250026BE
:10012000103A01D378C1FBD8520700D330C100D5B3
:100130000B6070471FB51FBD10B510BD00F0FCFB74
:100140001146FFF7F7FF09F047F800F014FC03B47D
:10015000FFF7F2FF03BC09F003F8000007488047EF
:1001600007480047FEE7FEE7FEE7FEE7FEE7FEE79B
:1001700004480549054A064B70470000477F0008C0
:10018000B900000820090020200F0020200B0020CB
:10019000200B002001E004C0091F0429FBD28B07BB
:1001A00001D50280801CC90700D002707047002969
:1001B0000BD0C30702D00270401C491E022904D391
:1001C000830702D50280801C891EE3E70022EEE748
:1001D0000022DFE7002203098B422CD3030A8B4263
:1001E00011D300239C464EE003460B433CD400222F
:1001F00043088B4231D303098B421CD3030A8B4241
:1002000001D394463FE0C3098B4201D3CB01C01A0E
:10021000524183098B4201D38B01C01A52414309D9
:100220008B4201D34B01C01A524103098B4201D3C7
:100230000B01C01A5241C3088B4201D3CB00C01A34
:10024000524183088B4201D38B00C01A52414308AC
:100250008B4201D34B00C01A5241411A00D20146D1
:100260005241104670475DE0CA0F00D0494203106A
:1002700000D34042534000229C4603098B422DD3B9
:10028000030A8B4212D3FC22890112BA030A8B4261
:100290000CD3890192118B4208D3890192118B42B0
:1002A00004D389013AD0921100E08909C3098B4235
:1002B00001D3CB01C01A524183098B4201D38B0178
:1002C000C01A524143098B4201D34B01C01A52411B
:1002D00003098B4201D30B01C01A5241C3088B4260
:1002E00001D3CB00C01A524183088B4201D38B004B
:1002F000C01A5241D9D243088B4201D34B00C01AD5
:100300005241411A00D20146634652415B101046E9
:1003100001D34042002B00D54942704763465B1031
:1003200000D3404201B50020C046C04602BD704720
:10033000704770470246C80FC00781434B0030B575
:100340004B405B009B0D20D01923DB06C91801230D
:100350001B05994220DB0324A40704251346AB4068
:100360000BD3002B04D1EB0613409B00E34204D4D3
:1003700001246407002312195941FF231B059942E8
:100380000BD2C9000143500F09E0CB0204D5014351
:100390000803024305D0054830BDFF21C9050843C5
:1003A00030BD084607210905884330BD0000C07FE5
:1003B0001F22030C02D10F22000402D0030E03D02F
:1003C00004E00020014670470002083A030F01D103
:1003D0000001121F830F01D18000921E002801DB53
:1003E0004000521E120551184205C0124118104615
:1003F0007047C10FC90700D0404201229207114344
:10040000D6E701218907D3E7F0B58B4C0F092546C4
:1004100089B0BD437BD01D092646AE43FAD00E46B7
:100420005E402740F60F3E43254071D02401214213
:10043000FBD0FF24AD19A4042D1B039501252D0528
:10044000DB02DB0AC9022B43C90A29431E01090149
:10045000040F130F050121431701880B82039143F9
:100460002D098C46A90B1E438A039543B30B9A03AF
:1004700096433F09BA0B9403A74302962E467E4348
:100480000497B6464E19D7190C4601965443059762
:100490007E43371B7646BF1B3601B646BE0B361968
:1004A00000967646BC043719009C01D3641C009466
:1004B0006400002F01D001263443029E049F75433F
:1004C00066467E430496760034196E003419009413
:1004D000029C019E1C196643751BAE460694654638
:1004E0004519059C05956C43594375460891691A51
:1004F0000191049E01465143A41B0491611A009C82
:100500000791E10605D061090122114302E072E082
:100510006EE06109089D00272C0A2D066918049DCC
:100520007C412A0A2D066918019D6241AC0DAD027D
:100530006D185441079A910D920255196141029A22
:10054000644658435443069B059A5A43121A131B98
:100550009A0E9B015B187A41010B0005C3185141AB
:10056000220A200644195A419A4200D2491C01200D
:100570004002814203D315230226F64302E01423EE
:100580000326F6432020C51AA9401746AF40DA409B
:100590000A4320460399D8400914731819055118C5
:1005A000039A3843D2075140AC4009D0012294400D
:1005B00006D30022401C5141002C01D140084000CC
:1005C0001E4A934212D3012203989206904207DBFF
:1005D0000520400709181A480143C012414004E0B1
:1005E000032040070818C10FC907002009B0F0BD5B
:1005F0000020F107FAE705180C464C4111486D42FE
:10060000A04115D394181A465A410E4864429041AD
:100610000ED301204A004005824209D35A0082428B
:1006200006D35940C90F084AC90700201143DDE726
:1006300000200649DAE700000000FF07FE0700007F
:10064000FFFFFF7F0000E0FF0000F07F0000F87F69
:10065000F0B5FF252D04C609C209FF2704462E4028
:100660000137CB093E4348402A402B400746002A29
:100670006BD0002B69D0AA4267D0AB4265D000286E
:1006800000DA32460125ED0529432C4309022002F8
:10069000090AD21A4B0C7F24E31A434C000A7C440B
:1006A000E35C7D242404121914145B00A218884210
:1006B00001D3521C00E0400049420C465C43241127
:1006C0005C43DB016415E318040A5C43C502200D9A
:1006D0000C4644436419250A5D432303EC0C0D4684
:1006E000654300030019EB184C42A34201D35B1889
:1006F000401CD4052018002B07D05B00C91804D378
:10070000401C002901D1400840003F2189048A4251
:1007100009D3002A08DC1106090F04D00321490778
:100720004018C00FC007F0BD012241001206891811
:100730007F2252069142F6D205214907C84201D5CF
:100740009010F0BDFF20C005F0BD002F00DA32464A
:100750001648AA4207D2AB4205D21902090E17D099
:10076000F80FC007F0BDFF2563002D06AB42F9D896
:100770004900A942F6D8AB4201D1A942F2D0A94220
:1007800001D1002101E061004908D0050843F0BD16
:100790001102090EFBD0FF200243D005F0BD0A462E
:1007A0000146104654E700004E9000000000C07F54
:1007B00010B501469E240002CA15A307002A02D0E4
:1007C0001843002A04DBA21A002A0CDDD04010BD19
:1007D0001206120E01D140004008A21A03D4D040E4
:1007E00040420028F3DDFF2248001206904201D962
:1007F000002010BDC817C043584010BD0102C215EB
:1008000004D00123DB071943002A0ADB9E239A1A2E
:1008100002D40846D0407047FF22410012069142A0
:1008200001D900207047C017C04370471F22030C36
:1008300002D10F2200041CD0030E01D10002083A9D
:10084000030F01D10001121F830F01D18000921EFE
:10085000002801DB4000521ED20551180212511827
:100860001922904004D3491C002801D149084900AD
:1008700008467047C10FC90700D0404201229207C5
:100880001143D3E701218907D0E7000010B5FF230A
:100890001B0644009C421DD84C009C421AD80346BB
:1008A000124A0B4307D4401A02D3EFF3008010BD65
:1008B000EFF3008010BD081A06D2EFF3008001218B
:1008C0009043C907084302E0EFF30080904380F3B0
:1008D000008810BD0D231B041A4204D011460020CD
:1008E00000F00AF810BD00F01FF810BD00000090E5
:1008F00000487047BC080020C80212D54803400FCA
:10090000002804D0C803C043012188407047EFF39A
:1009100000800001000903210907084380F30088D3
:10092000704700207047000010B5024800F02BF817
:1009300010BD00000000C07F7546FFF7D9FFAE462E
:10094000050069465346C008C000854618B020B56A
:10095000FFF70EFC60BC00274908B6460026C0C55C
:10096000C0C5C0C5C0C5C0C5C0C5C0C5C0C5403D67
:1009700049008D46704710B50446C046C046204623
:10098000FFF7E5FB10BD10B50C461107090F09294B
:1009900004D00A290AD008290CD104E01146082005
:1009A000FFF7AAFF06E0510606D501E0510601D582
:1009B0000120C007214610BDD10607D50101090954
:1009C000CC084907000E0006044309E0410F20024D
:1009D0004907000A0143200E00061D22D1410143B0
:1009E0000846E7E710B5024800F05BFE10BD0000C6
:1009F0006C02002070B50446206806F0C4F9002897
:100A00002BD0206806F0AAF9002807D12068816859
:100A1000134A11401031816000BF00BF01F0AAFCF1
:100A2000054614E001F0A6FC401B02280FD92068FF
:100A3000806804210840002809D0A06D10210843D7
:100A4000A065E06D01210843E065012070BD2068CC
:100A50008068042108400028E4D10020F6E7000067
:100A6000E8FFFF7F70B50546AC6AA06D50210840D5
:100A7000002831D1A06D012149020843A0652068FA
:100A800006F087F9002823D0A07E002820D1206816
:100A900000680821084008281AD1206806F073F978
:100AA00000280DD1206840680C21884321684860E7
:100AB000A06DFF210131884301210843A06507E0B3
:100AC000A06D20210843A065E06D01210843E06589
:100AD000204600F0E3FD0CE0A06D10210840002846
:100AE00003D0204600F0DCFD03E0206D416B28467A
:100AF000884770BD70B50546AC6AA06D40210843BB
:100B0000A065E06D04210843E065204600F0C8FDC3
:100B100070BD70B50446A56A284600F0C0FD70BDE2
:100B200070B50446206806F019F90646206806F0FC
:100B30001BF9002837D0002E35D1206880680521A8
:100B40000840012806D1206806F0F2F80320216849
:100B5000086009E0A06D10210843A065E06D012147
:100B60000843E065012070BD01F004FC054614E077
:100B700001F000FC401B02280FD920688068C007E4
:100B8000C00F002809D0A06D10210843A065E06DBA
:100B900001210843E0650120E5E720688068C0077F
:100BA000C00F0028E4D10020DDE7000038B504467E
:100BB00000200090206806F0D7F8002858D120685F
:100BC00080682C490840002809D0A06D10210843F6
:100BD000A065E06D01210843E065012038BD206873
:100BE00006F0AEF8244806F0B3F80121C905084024
:100BF00000280DD0214922480068FFF7EBFA401C7D
:100C0000009002E00098401E009000980028F9D162
:100C1000607E01282CD001F0ADFB05461FE0206866
:100C200006F0A2F8002802D1206806F089F801F049
:100C3000A1FB401B022812D920680068C007C00F22
:100C4000012148404840002809D1A06D10210843E7
:100C5000A065E06D01210843E0650120BEE7206842
:100C60000068C007C00F0121484048400028D6D086
:100C70000020B3E71700008008270140400D030063
:100C8000A800002010B505F0A5FE10BD70B5044603
:100C900000260022012149020520000701F063FB24
:100CA00005F074FF2546E117090E4919091249009C
:100CB000A031C8B205F01EFF05F0D0FFE117090E04
:100CC000491909120902611AC8B205F013FF05F0AB
:100CD000C5FF05F05BFFA12005F00CFF05F0BEFF8E
:100CE000002005F0C9FE064605F084FF01225102EE
:100CF0000520000701F037FB304670BD70B5044693
:100D00000E460022012149020520000701F02BFBBD
:100D100005F03CFF2546E117090E49190912490063
:100D2000A031C8B205F0E6FE05F098FFE117090E04
:100D3000491909120902611AC8B205F0DBFE05F073
:100D40008DFF304605F0D6FE05F088FF05F052FF16
:100D50000A2008F011FA012251020520000701F0D3
:100D600002FB70BD10B5054800880549884203DCC8
:100D70006421092000F034F810BD0000C2000020FA
:100D8000B80B000010B5002208210A4801F0EBFA68
:100D90007D21022000F024F81E21032000F020F81D
:100DA0001021052000F01CF88D21072000F018F814
:100DB00010BD0000000C00501CB5044600BF0748E1
:100DC00040782028FBD1142001230022D421009454
:100DD00001900248403801F00BFC1CBD6C03002060
:100DE0007CB504460D4600BF084840782028FBD15A
:100DF00007480570012006490346224600910190EC
:100E0000D4210248403801F0A5FC7CBD6C030020D1
:100E10000C000020F8B50020FFF738FF0646552EDD
:100E20007ED00121C903002000F0E0F90121C903AF
:100E3000002000F0DBF91321002000F0D7F97D201D
:100E4000000108F099F99349062000F09FF901206C
:100E500008F092F900BF904840782028FBD18D48D7
:100E6000007810210840102801D00020F8BD002192
:100E7000612000F0A1F952213E2000F09DF90021EF
:100E80003F2000F099F9012008F076F969466020CA
:100E900000F07CF900BF804840782028FBD16846EC
:100EA0000078FF210C1A7D494A2000F06FF97C4937
:100EB0004B2000F06BF97B494C2000F067F97A4930
:100EC0004D2000F063F97949502000F05FF978492E
:100ED000512000F05BF977495B2000F057F9764923
:100EE0005C2000F053F900BF6B4840782028FBD10C
:100EF0006A48007871490978884205D168480078C5
:100F00006F49097888427DD065480078201A634986
:100F10000978401A64490978401A6249097800E062
:100F2000B5E0401A62490978401A60490978401AC8
:100F300061490978401A5F490978401AC4B2012012
:100F400008F01AF95D4801784A2000F035F95C484C
:100F500001784B2000F030F95A4801784C2000F01D
:100F60002BF9594801784D2000F026F957480178AF
:100F7000502000F021F956480178512000F01CF96A
:100F8000544801785B2000F017F9534801785C2041
:100F900000F012F94A4800782018484909784018AA
:100FA000494909784018474909784018484909785B
:100FB000401846490978401847490978401845497A
:100FC00009784018C4B2FF20051B2946602000F0B4
:100FD000F3F87D20C00008F0CFF852213E2000F049
:100FE000EBF800213F2000F0E7F8012008F0C4F8FA
:100FF0003A49602000F0CAF800BF2748407820280E
:10100000FBD100E024E035480078A8421ED100BFA3
:101010004221002000F0EAF8012008F0ADF81D4957
:10102000062000F0B3F8012008F0A6F8194800786F
:10103000102108401028EBD02021002000F0D6F825
:1010400055210020FFF75AFE01200FE700200DE791
:1010500000BF4221002000F0C9F8012008F08CF800
:101060000C49062000F092F8012008F085F80948A4
:101070000078102108401028EBD02021002000F03B
:10108000B5F855210020FFF739FE0120EEE60220D9
:10109000ECE600003D0000206C030020350000203D
:1010A00034000020370000203600002039000020E6
:1010B000380000203B0000203A0000202C000020D7
:1010C0002D0000202E0000202F00002030000020E6
:1010D0003100002032000020330000203C000020BE
:1010E0001CB5044600BF284840782028FBD10220C8
:1010F00001230422AA21009401902348403801F0E2
:1011000077FA00BF204840782028FBD10221A01C9C
:1011100001230A4601910090AA211B48403801F0A2
:1011200067FA00BF184840782028FBD10221201D13
:101130000123102201910090AA211348403801F0A8
:1011400057FA00BF104840782028FBD10221A01D8B
:1011500001231C2201910090AA210B48403801F084
:1011600047FA00BF084840782028FBD102212046DA
:10117000083001230E2201910090AA210248403834
:1011800001F036FA1CBD00006C0300207CB504465B
:101190000D4600BF074840782028FBD101200346B8
:1011A0002246AA21009501900248403801F020FA19
:1011B0007CBD00006C0300207CB504460D4600BFDA
:1011C000084840782028FBD10748057001200649CF
:1011D0000346224600910190AA210248403801F0BE
:1011E000B9FA7CBD6C0300202A0000207CB50546BE
:1011F0000C4600BF094840782028FBD108490C70F4
:1012000020124870022001232A4600910190AA2151
:101210000248403801F09EFA7CBD00006C030020BB
:101220002A00002010B5064800F01CFE054800F01A
:1012300019FE054800F016FE044800F013FE10BD2C
:10124000E8040020D0020020600800207007002081
:1012500010B5024800F006FE10BD0000D4030020C7
:1012600010B5034800F0FEFD024800F0FBFD10BD84
:10127000300400208C04002070B50446206C8008E7
:101280008000094940186064217808460838142114
:10129000FEF7A0FF054604488030A064E906C90EA9
:1012A00001208840E06470BD000802400279910688
:1012B000890E4A1E9200064BD2180265044A40323B
:1012C00042654A1E93079B0F01229A408265704730
:1012D0000009024070B5856CC46C6C60046D002C14
:1012E00002D0456D846D6C600C4C64681C26056CE6
:1012F00035400126AE403443084D6C60046863609D
:101300008468102C04D10468A2600468E16003E0E2
:101310000468A1600468E26070BD00000000024043
:1013200010B5042000F004FF10BD72B600BFFEE748
:101330007047704770477047F0B585B005460C465A
:101340000020039002900121C9072869884203D038
:10135000091D2869884200D100E000BF00BF542069
:10136000405D012802D1022005B0F0BD01215420CA
:10137000415500BF286805F006FD002876D1606859
:10138000022874D00121C9072869884203D0091DA9
:101390002869884208D128682168826A4B035B0B60
:1013A0001A43826200BFC6E02179CA06D20E0F211D
:1013B0009140286E884321684903490B002905D1D3
:1013C0001F22920621681140890E92E02178C907F8
:1013D000C90F002901D000218BE0022221681140B1
:1013E000022901D1012184E004222168114004294D
:1013F00001D102217DE0082221681140082901D194
:10140000032176E0102221681140102901D1042126
:101410006FE0202221681140202901D1052168E0D8
:10142000402221681140402901D1062161E080223B
:1014300021681140802901D107215AE0FF220132A1
:1014400021681140914201D1082152E0012252024B
:1014500021681140914201D109214AE00122920202
:1014600021681140914203D10A2142E0FAE0BAE03A
:101470000122D20221681140914201D10B2138E0B2
:101480000122120321681140914201D10C2130E068
:101490000122520321681140914201D10D2128E01F
:1014A0000122920321681140914201D10E2120E0D6
:1014B0000122D20321681140914201D10F2118E08D
:1014C0000122120421681140914201D1102110E043
:1014D0000122520421681140914201D1112108E0FA
:1014E0000122920421681140914201D1122100E0B1
:1014F00000212279D206D20E914008432866606806
:101500008008401CE969884215D82868226861680B
:101510000192836ACF06FF0E0F22BA4093430F2732
:10152000BF06019A3A40920ECF06FF0EBA4013430F
:10153000836200BF00BF286821680091A168019103
:101540004269009909028A4300990B024C4F0199A4
:1015500039400B401A43426100BF2068C00FC007EA
:10156000002821D0474805F0F3FB0646464920688D
:1015700088421AD1C0023040002816D1C802304338
:101580000146404805F018FC404941480068FEF714
:1015900021FE401C0C214843029002E00298401EAC
:1015A000029002980028F9D162E03A492068884206
:1015B0000AD180023040002806D18802304301461B
:1015C000304805F0F9FB53E03349206888424FD199
:1015D0004002304000284BD14802304301462948A0
:1015E00005F0EAFB44E00121C9072869884203D0DD
:1015F000091D2869884208D128682168826A4B033E
:101600005B0B9A43826200BF00BF2068C00FC00717
:1016100000282DD01B4805F09BFB06461A49206880
:10162000884207D1C202304690430146154805F072
:10163000C3FB1DE017492068884207D1820230466B
:10164000904301460F4805F0B7FB11E012492068AE
:1016500088420DD14202304690430146094805F0C8
:10166000ABFB05E0A86D20210843A865012003908D
:1016700000BF00215420415500BF039874E60000CC
:1016800000FFFF0708270140001000B0400D0300D5
:10169000A8000020004000B8002000B47047704748
:1016A0007047F8B50446002720680568206846683A
:1016B00002202840022811D1304002280ED1A06D0E
:1016C00010210840002803D1A06DC9010843A0657E
:1016D0002046FFF72EFE02202168086004202840E3
:1016E000042802D13040042806D0082028400828C9
:1016F0003AD13040082837D1A06D10210840002889
:1017000003D1A06D49010843A065206805F041FBA5
:10171000002823D0A07E002820D12068006808215E
:10172000084008281AD1206805F02DFB00280DD1AB
:10173000206840680C21884321684860A06DFF2123
:101740000131884301210843A06507E0A06D2021F5
:101750000843A065E06D01210843E0652046FFF7DE
:101760009DFF0C20216808608020284080280DD132
:10177000304080280AD1A06D012109040843A065EA
:10178000204600F0AFF9802021680860FF2001307A
:101790002840FF21013188420DD1304088420AD1D2
:1017A000A06D49020843A0652046FFF7C3FDFF2056
:1017B00001302168086001204002284001214902CF
:1017C00088420DD1304088420AD1A06D49020843B9
:1017D000A0652046FFF7AFFD0120400221680860A8
:1017E0001020284010281ED1304010281BD1206B1B
:1017F000002801D1012706E02068C1688907890F08
:10180000002900D00127012F0AD1A06DB902084399
:10181000A065E06D02210843E0652046FFF740FF28
:10182000102021680860012040032840012149035D
:10183000884209D13040884206D12046FFF778FD22
:101840000120400321680860F8BD0000FEB5044691
:1018500000200290002500260190002C01D10120DB
:10186000FEBD3C20005D012800D100BF206900289A
:1018700005D0012149052069884200D100BFA06D33
:10188000002807D1204600F02FF90020E065002154
:1018900054200155206805F06FFA002817D1206800
:1018A0008168894A1140012212071143816000BFFB
:1018B000864987480068FEF78DFC401C4000019077
:1018C00002E00198401E019001980028F9D120689B
:1018D00005F052FA002809D1A06D10210843A06537
:1018E000E06D01210843E06501200290206805F0C9
:1018F0004AFA0746A06D1021084000287ED1002F2B
:10190000FCD1A06D0901884302210843A06520682D
:1019100005F02AFA002872D1217E8903A0680843C5
:10192000617EC9030843A17E49030843216B002956
:1019300002D00121090300E000210843E1680843C7
:101940002169C90FC907002903D021694900490845
:1019500001E00121490508432C21095D49000843A4
:1019600005432020005D01280ED1A07E002803D170
:1019700001200004054307E0A06D20210843A06575
:10198000E06D01210843E065606A002806D0FF2170
:10199000C131606A0840A16A084305432068C068F5
:1019A0004C49084028432168C8606068800F800760
:1019B000E16C084306433C20005D01280BD16068C0
:1019C000800F800701210843216C0843616C0843A4
:1019D000A16C08430643206800693F490840304332
:1019E00021680861032189076068884216D049424E
:1019F0006068884212D04900606801E05BE00DE059
:101A000088420BD0354880680F21890488430F2213
:101A10009204616811400843304988600021626B7C
:101A2000206805F0D0F92E49A26B206805F0CBF9AB
:101A30002069002807D12068806A0F21C943084324
:101A40002168886211E001214905206988420CD192
:101A5000207F401E4007C10E0F20C0438840216EEA
:101A600008432168896A2168886221680020009102
:101A70000099496904220240072393401940042237
:101A80000240D140606B814208D10020E065A06D2A
:101A90000221884301210843A06512E0A06D0221C4
:101AA000884310210843A065E06D01210843E065EB
:101AB0000120029005E0A06D10210843A0650120DF
:101AC00002900298CCE60000E8FFFF7F400D030083
:101AD000A80000200102FEFF02FCFF1F00270140BA
:101AE00004FFFF077047000010B58EB004461421B4
:101AF00009A8FEF76DFB1C2102A8FEF769FB31491E
:101B0000206888425CD10120800302900020079069
:101B100002A801F0A1F8002801D0FFF706FC00BFE1
:101B2000294800680121090508432749086008463B
:101B30000068012109050840019000BF00BF00BFF7
:101B400021484038406B012108431F494039486310
:101B50000846406BC007C00F019000BF00BF0D20BA
:101B6000099003200A9000200B9009A90520000786
:101B700000F0FAFA1548164908600520486000216F
:101B800013488160C1608021016149004161890081
:101B900081612021C1610021016200F0F3F9002878
:101BA00001D0FFF7C2FB00BF09482065846200BF77
:101BB000002211460C2001F019F80C2001F004F865
:101BC0000EB010BD002401404010024058000240F9
:101BD000D0020020F8B504460E461746206805F0EE
:101BE000D2F8002850D100BF5420005D012801D157
:101BF0000220F8BD01215420015500BF2068C068B3
:101C0000084000280DD1206805F0AEF8002802D069
:101C1000206805F08DF82068C0680121084321681C
:101C2000C8602046FEF7C2FF0546002D2DD1A06DED
:101C300017490840FF2101310843A0650020E065F5
:101C40001448216DC8621448216D08631348216D42
:101C500048631C202168086000BF00215420015502
:101C600000BF20684068102108432168486022684E
:101C7000114640313B463246206D00F0E3F90546FF
:101C8000206805F091F800E002252846B1E7000041
:101C9000FEF1FFFF650A0008130B0008F50A0008B3
:101CA00070B5044600BF5420005D012801D1022018
:101CB00070BD01215420015500BF2046FEF79AFE59
:101CC0000546002D2DD1206D20304079022809D104
:101CD000206D00F02DF80546002D03D0A06D4021A9
:101CE0000843A06520684068102188432168486047
:101CF000002D04D12046FEF713FF054602E02046E2
:101D0000FEF70EFF002D06D1A06DFF2101318843A3
:101D100001210843A0652068C06840084000216890
:101D2000C86000BF00215420015500BF2846BFE70E
:101D30000146002901D1012070472520405C02287E
:101D400008D00420C86300BF00222420425400BFF2
:101D50000120F1E7086800680E2290430A681060CD
:101D6000486C0068FF22013290434A6C106008689A
:101D70000068400840000A681060124840681C2350
:101D80000A6C1A400123934018430E4A50608A6C33
:101D9000C86C5060086D002809D0086D0068FF22EB
:101DA000013290430A6D10604A6D886D50600122C7
:101DB0002520425400BF00222420425400BF0020AE
:101DC000BAE700000000024070B504460025252057
:101DD000005D022803D00420E06301253AE020687A
:101DE00000680E2188432168086020680068400868
:101DF000400021680860606C0068FF210131884361
:101E0000616C0860144840681C22216C114001225A
:101E10008A40104310494860A16CE06C4860206D16
:101E2000002809D0206D0068FF2101318843216D11
:101E30000860616DA06D486001212520015500BF3B
:101E400000212420015500BFA06B002802D02046AD
:101E5000A16B8847284670BD00000240014625203E
:101E6000405C704770B504464548056820680668C0
:101E70001C20216C0140042088402840002820D0EC
:101E80000420304000281CD0206800682021084031
:101E9000002805D120680068042188432168086073
:101EA000374840681C22216C114004228A401043AC
:101EB00033494860206B002860D02046216B88475A
:101EC0005CE01C20216C0140022088402840002852
:101ED00028D002203040002824D02068006820212B
:101EE0000840002808D1206800680A21884321683A
:101EF0000860012125200155214841681C22206CE1
:101F000010400222824011431D48416000BF002161
:101F10002420015500BFE06A00282FD02046E16A46
:101F200088472BE01C20216C014008208840284075
:101F3000002823D00820304000281FD020680068E7
:101F40000E218843216808600D4841681C22206CDE
:101F50001040012282401143094841600120E063A2
:101F600001212520015500BF00212420015500BF7B
:101F7000606B002802D02046616B884770BD00006E
:101F80000000024010B50446002C01D1012010BD14
:101F90002A4A2168881A1421FEF71CF9800020645F
:101FA0000221252001552068006825490840216844
:101FB0000860E168A0680843216908436169084333
:101FC000A1690843E1690843216A08432168096857
:101FD0000843216808602046FFF74EF90121890374
:101FE000A068884201D10020606020798006800EC0
:101FF000616C0860A16CE06C4860606800280CD0DF
:102000006068042809D82046FFF750F90020216DA8
:102010000860616DA06D486003E000202065606588
:10202000A0650020E06301212520015500BF0021AB
:102030002420015500BF0020A9E70000080002404D
:102040000F80FFFFF8B504460D4616461F460020D8
:10205000009000BF2420005D012801D10220F8BDBE
:1020600001212420015500BF2520005D012844D115
:102070000221252001550020E06320680068400807
:102080004000216808603B46324629462046FFF75B
:1020900021F9206B002806D0206800680E21084333
:1020A000216808600BE020680068042188432168EB
:1020B0000860206800680A21084321680860606C95
:1020C0000068012109040840002805D0606C006800
:1020D00009120843616C0860206D002806D0206D4D
:1020E0000068FF2101310843216D08602068006805
:1020F000012108432168086008E08020E06300BFF8
:1021000000212420015500BF012000900098A6E77F
:1021100010B504460421044800F012F9002802D149
:1021200001200249087010BD000400508E000020FC
:1021300010B504460A48C0682040002804D008486A
:10214000C460204600F00EF80548006920400028D1
:1021500004D0034804612046FFF7DAFF10BD0000F9
:10216000001802407047000070B503460A4600217F
:10217000D7E001268E4014683440002C73D01579C6
:10218000AD07AD0F012D04D01579AD07AD0F022DB0
:1021900018D198684E000325B5400646AE43304638
:1021A0004E00D568B54028439860586801258D4099
:1021B0000646AE4330461026556835402D098D4001
:1021C000284358601579AD07AD0F032D0BD0D868A3
:1021D0004E000325B5400646AE4330464E00956896
:1021E000B5402843D8601579AD07AD0F022D15D144
:1021F000CD08AE001D462035A8594D07EE0E0F251F
:10220000B5400646AE4330464E07F60E1569B5405A
:102210002843CD08AD001E462036705118684E0088
:102220000325B5400646AE4330461579AD07AD0FE0
:102230004E00B540284318600326360455683540E3
:10224000002D6DD03A4D8E08B600A8598D07EE0EC0
:102250000F25B5400646AE43304605252D07AB4257
:1022600002D1002510E05BE0324DAB4201D10125E7
:102270000AE0314DAB4201D1022505E02F4DAB42C2
:1022800001D1032500E005258E07F60EB540284351
:10229000274D8E08B600A851254D603D286805469B
:1022A000A54328460126360555683540002D02D045
:1022B0000546254328461E4D603D28606868054652
:1022C000A54328460126760555683540002D02D0E5
:1022D000054625432846164D603D6860144D20355F
:1022E00068680546A54328460126760455683540AA
:1022F000002D02D00546254328460D4D2035686047
:1023000028680546A5432846012636045568354009
:10231000002D02D0054625432846054D203528606E
:10232000491C1568CD40002D00D022E770BD00008B
:10233000601802400004005000080050000C0050DB
:10234000024613690B40002B01D0012000E0002061
:10235000704710B5426913460B401B040C4694436A
:102360002343836110BD002A01D0816100E08162B6
:102370007047000001480068704700009C00002082
:1023800002464120805C20282FD100BF4020805C85
:10239000012801D10220704701234020835400BF4F
:1023A00024234120835410680068400840001368CB
:1023B00018601068006801231B03984313681860B5
:1023C00010680068084313681860106800680123EB
:1023D00018431368186020234120835400BF002352
:1023E0004020835400BF0020D5E70220D3E710B57A
:1023F00002460B464120805C20282ED100BF4020A1
:10240000805C012801D1022010BD012440208454A9
:1024100000BF242441208454106800684008400014
:1024200014682060106801680F2424020846A04345
:102430000146180201431068016010680068012419
:1024400020431468206020244120845400BF0024CD
:102450004020845400BF0020D6E70220D4E7704714
:102460007047F8B504462068856920680668FF2033
:1024700001302840000A00280BD080203040C009DD
:10248000002806D0606C01210843606408022168BE
:10249000C861012080022840800A00280BD08020DB
:1024A0003040C009002806D0606C082108436064F1
:1024B000C8012168C861012040022840400A002864
:1024C0000BD080203040C009002806D0606C02216B
:1024D0000843606408022168C861676C0B203840BB
:1024E000002803D03946204603F02EFCF8BD70B515
:1024F00004462068856920680668606B002804D05F
:10250000324629462046636B984770BD70470000ED
:1025100010B50446002C01D1012010BD4120005D02
:10252000002805D1002140200155204600F0C4F9C3
:10253000242141200155206800684008400021689E
:1025400008600F21090660688843216808612068D7
:1025500080680121C903884321688860E0680128F8
:1025600006D10121C903A06808432168886005E0FD
:1025700021218902A068084321688860E068022858
:1025800002D18002216848602068406814490843ED
:10259000216848602068C0680121C9038843216818
:1025A000C860616920690843A1690902084321687C
:1025B000C860216AE06908432168086020680068F3
:1025C0000121084321680860002060642021412027
:1025D00001550020206300214220015500209CE786
:1025E00000800002704770477047704770470000D6
:1025F000FFB583B0044615461E460C9F4120005D82
:10260000202872D1002F02D00D98002805D101207A
:1026100040026064012007B0F0BD2068806901219C
:10262000C9030840C00B002801D00220F3E700BF17
:102630004020005D012801D10220ECE7012140206B
:10264000015500BF22214120015540214220015562
:102650000020606467620D9860853948E0623948FF
:1026600060630498E064608DFF2802D9FF20208514
:1026700001E0608D2085012E05D1E8B221688862D5
:10268000B01E206507E0FF200002284000122168EC
:102690008862E8B22065E06B002815D02A48E16B1B
:1026A000C8622A48E16B48630020E16B0863E16B74
:1026B0008863238D206801462431E06B3A460190FF
:1026C000FFF7C0FC029011E02021412001550021BC
:1026D00042200155606C80210843606400BF0021E6
:1026E0004020015500BF012095E727E0029800280F
:1026F00011D11748F2B2002300902046049904F04B
:10270000F7F800BF00214020015500BF01212046FD
:1027100003F050FA10E02021412001550021422011
:102720000155606C10210843606400BF0021402007
:10273000015500BF01206EE700206CE702206AE728
:102740000000FFFF3D640008795A00085B5A00084A
:1027500000200080FFB583B0044615461E460C9F3E
:102760004120005D202872D1002F02D00D98002852
:1027700005D1012040026064012007B0F0BD20684F
:1027800080690121C9030840C00B002801D0022044
:10279000F3E700BF4020005D012801D10220ECE7F3
:1027A00001214020015500BF212141200155402138
:1027B000422001550020606467620D9860853948A9
:1027C000E062394860630498E064608DFF2802D9B4
:1027D000FF20208501E0608D2085012E05D1E8B223
:1027E00021688862B01E206507E0FF2000022840B3
:1027F000001221688862E8B22065A06B002815D01D
:102800002A48A16BC8622A48A16B48630020A16BCB
:102810000863A16B8863238D206802462832A06B71
:1028200039460190FFF70EFC029011E02021412073
:102830000155002142200155606C802108436064ED
:1028400000BF00214020015500BF012095E727E08F
:102850000298002811D11748F2B2C3020090204616
:10286000049904F045F800BF00214020015500BF45
:102870000121204603F09EF910E02021412001555E
:10288000002142200155606C10210843606400BFA4
:1028900000214020015500BF01206EE700206CE7B9
:1028A00002206AE70000FFFF3D640008DD5A0008CF
:1028B0005B5A00080020008010B58EB00446142139
:1028C00009A8FDF785FC1C2102A8FDF781FC7849C9
:1028D0002068884278D1202002900020059002A82C
:1028E00000F0BAF9002801D0FEF71FFD00BF7148C3
:1028F000406B022108436F4948630846406B022140
:102900000840019000BF00BF032000020990122080
:102910000A9000200B900C9006200D9009A96648A3
:10292000FFF722FC00BF6348C06B01214905084343
:102930006049C8630846C06B012149050840019001
:1029400000BF00BF5D485E4908600A204860002162
:102950005B488160C160802101610021416181612A
:10296000C1610162FFF70EFB002801D0FEF7DDFC1C
:1029700000BF5348E063846200BF5048143051499F
:1029800008600B20486010214E4881600021C16022
:1029900080210161002141618161C1610162FFF714
:1029A000F1FA002801D0FEF7C0FC00BF4548A06343
:1029B000846200BF00221146172000F017F917208B
:1029C00000F002F971E0FFE73F49206888426CD1CE
:1029D00000BF3848406B0221084336494863084627
:1029E000406B02210840019000BF00BF032080021D
:1029F000099012200A9000200B900C9006200D9058
:102A000009A92D48FFF7B0FB00BF2A48C06B012180
:102A1000890508432749C8630846C06B0121890519
:102A20000840019000BF00BF2448283027490860B3
:102A30000C204860002125488160C160802101612F
:102A4000002141618161C1610162FFF79BFA0028A9
:102A500001D0FEF76AFC00BF1C48E063846200BF3F
:102A600016483C301A4908600D204860102118486B
:102A700081600021C160802101610021416181618B
:102A8000C1610162FFF77EFA002801D0FEF74DFC1C
:102A900000BF0F48A063846200BF002211461820C7
:102AA00000F0A4F8182000F08FF80EB010BD000060
:102AB0000054004000100240000400500800024092
:102AC000D403002030040020005800408C04002073
:102AD000E8040020704770470348006803490978FC
:102AE00040180149086070479C000020A4000020A5
:102AF00010B5002408480068FF2101310843064949
:102B00000860032000F00AF8002801D0012401E049
:102B100000F034F8204610BD00200240F8B504460D
:102B200000251348007800281ED0114801787D2028
:102B3000C000FDF74FFB074639460E480068FDF719
:102B400049FB064601F0D2F900280BD1042C07D22C
:102B500000222146401E00F049F80748046004E0C6
:102B6000012502E0012500E001252846F8BD00000E
:102B7000A4000020A8000020A000002008B500BF8D
:102B800010480068012108430E49086008460068A3
:102B9000C007C00F009000BF00BF00BF0948403809
:102BA000C06B8905084307494039C8630846C06BB4
:102BB00009040840009000BF00BF0320400201F05C
:102BC00077F908BD401002400146002909DB00BF2B
:102BD00000BFCB06DB0E01229A40034B1A6000BFF8
:102BE00000BF00BF7047000000E100E070B5044680
:102BF0000D4616462946204606F070FA70BD0000C4
:102C000070B50446114800680321490288432043F7
:102C10000E4908604815844216D10D4909680622FC
:102C2000514308460B49FDF7D5FA451C05E0002D38
:102C300001D06D1E01E0032070BD044840690121F0
:102C4000890208408842F2D00020F5E70070004079
:102C5000A800002040420F00FEB5044600270020D7
:102C60000290012149042068084088427BD100205D
:102C700001907748C06BC902084000280ED100BF00
:102C80007348C06B08437249C8630846C06B0904A7
:102C90000840009000BF00BF012001906D4800680F
:102CA000FF21013108436B490860FFF763FB0646CB
:102CB00006E0FFF75FFB801B022801D9032706E02F
:102CC00064480068FF21013108400028F1D000BFAE
:102CD000002F4BD15E484030C569032109020D40E9
:102CE000002D1AD0A069A84217D059484030C069B9
:102CF0008843054656484030C0690121090408430D
:102D000053494031C8610846C0690121090488431C
:102D10004F494031C8610846C561E807C00F002827
:102D200013D0FFF727FB064607E0FFF723FB801BC6
:102D30004949884201D9032706E045484030C06927
:102D4000022108400028F0D000BF002F0CD14048DD
:102D50004030C069032109028843A16908433C4906
:102D60004031C86103E00DE0029700E0029701984E
:102D7000012806D13648C06B012109078843344930
:102D8000C86300BF2078C007C00F002809D03048B2
:102D90004030406980088000616808432C49403118
:102DA0004861022120680840022809D128484030A3
:102DB00040690C218843A168084325494031486196
:102DC00020212068084020280AD12148403040694D
:102DD000032109038843E16808431D4940314861E4
:102DE0000121890320680840884213D118484030E7
:102DF0004069800080086169084315494031486195
:102E000009066069884205D11148C06889130843E2
:102E10000F49C8600121C90220680840884215D1C5
:102E20000B484030406903218903884321690843E6
:102E3000074940314861012189032069884205D151
:102E40000348C068890008430149C8600298FEBD74
:102E500000100240007000408813000070B5044666
:102E60000D46002C01D1012070BD6B480068400761
:102E7000400FA84218D268480068C008C000284324
:102E800065490860FFF776FA064607E0FFF772FA31
:102E9000801B6249884201D90320E5E75E4800684B
:102EA0004007400FA842F1D10221206808400228C3
:102EB00015D1042120680840042807D158488068AB
:102EC00007210903884340185549886054488068A1
:102ED0000F2109028843A16808435149886020787E
:102EE000C007C00F002854D06068012808D14C48A2
:102EF000006801214904084000282ED10120B3E7D1
:102F00006068022808D14648006801214906084047
:102F1000002822D10120A7E76068002808D1404896
:102F20000068012189020840002816D101209BE792
:102F30006068032808D13A484030006A02210840FE
:102F400000280AD101208FE735484030C0690221AE
:102F50000840002801D1012086E731488068C00878
:102F6000C000616808432E498860FFF703FA0646EF
:102F700007E0FFF7FFF9801B2849884201D90320A9
:102F800072E727488068382108406168C900884294
:102F9000EFD1214800684007400FA84218D91E48C9
:102FA0000068C008C00028431B490860FFF7E2F929
:102FB000064607E0FFF7DEF9801B1849884201D971
:102FC000032051E7144800684007400FA842F1D1A0
:102FD000042120680840042808D11148806807218E
:102FE00009038843E16808430D49886000F03AF816
:102FF0000B4989680F2212021140090A8900094A07
:10300000515CC906C90EC8400749086007480068F6
:10301000FFF784FD28E7000000200240881300002D
:103020000010024090960008A8000020A000002098
:103030000148006870470000A800002000B5FFF7B5
:10304000F7FF06498968072212031140090B89001E
:10305000034A515CC906C90EC84000BD00100240B9
:10306000D0960008FEB53548806838210840002811
:103070000DD13248006809020840C10A0120884089
:1030800000902F480099FDF7A5F8044654E02B481E
:10309000806838210840082801D1294C4CE0274895
:1030A000806838210840102834D12448C068860739
:1030B000B60F2248C068702108400009401C0190EA
:1030C000022E0FD0032E0CD11D480199FDF782F876
:1030D0001A49C9687F2212021140090A484305466D
:1030E0000DE000BF16480199FDF774F81349C9684F
:1030F0007F2212021140090A4843054600BF00BF63
:103100000E48C068400F471C39462846FDF762F854
:10311000044611E00948806838210840202801D180
:10312000840209E00548806838210840182802D147
:103130007D24240200E000242046FEBD0010024051
:103140000024F400FEB50446002C01D10120FEBD90
:103150002078C007C00F00286FD0F7488768382153
:103160000F40C0688607B60F102F01D1032E01D083
:10317000082F0BD1F04800680121490408400028BD
:103180005BD06068002858D10120E0E700BF012132
:1031900009046068884205D1E74800680843E649A9
:1031A000086021E005210904606888420ED1E248E8
:1031B0000068012189040843DF4908600846006867
:1031C000012109040843DC4908600DE0DA48006881
:1031D000012109048843D849086008460068012194
:1031E00089048843D449086000BF6068002812D071
:1031F000FFF7C0F8054606E0FFF7BCF8401B64285F
:1032000001D90320A3E7CC48006801214904084004
:103210000028F1D011E0FFF7ADF8054606E0FFF712
:10322000A9F8401B642801D9032090E7C248006830
:103230000121490408400028F1D1022120680840FA
:10324000022873D1BC488068382108400746BA4834
:10325000C0688607B60F102F01D1022E01D0002FB3
:1032600036D1B5480068012189020840002804D001
:10327000E068002801D1012069E7AF4840687F215C
:1032800009028843616909020843AB494860002F7D
:1032900016D1084600680721C902884321690843FE
:1032A000A5490860084600680722D2021040C20AF9
:1032B000012090400146A148FCF78CFFA04908601E
:1032C000A0480068FFF72AFC002849D001203EE70B
:1032D000E06800282BD0984800680721C90288437D
:1032E0002169084394490860084600688915084325
:1032F00091490860FFF73EF8054606E0FFF73AF807
:10330000401B022801D9032021E78B4800680121D6
:10331000890208400028F1D0874840687F210902CF
:1033200088436169090208438349486018E082487C
:103330000068FF21013188437F490860FFF71AF8D0
:10334000054606E0FFF716F8401B022801D90320C6
:10335000FDE6794800680121890208400028F1D182
:10336000082120680840082849D17348806838211E
:10337000084018280BD170484030006A02210840EC
:1033800000283CD0A069002839D10120DFE6A069DF
:1033900000281AD068484030006A01210843664975
:1033A00040310862FEF7E6FF054606E0FEF7E2FF61
:1033B000401B022801D90320C9E65F484030006A5B
:1033C000022108400028F1D019E05B484030006A33
:1033D00040084000584940310862FEF7CBFF0546DF
:1033E00006E0FEF7C7FF401B022801D90320AEE626
:1033F00051484030006A022108400028F1D10421E0
:103400002068084004287CD1002001904A48806848
:103410003821084020280BD147484030C06902219C
:10342000084000286ED0A06800286BD101208EE6ED
:103430004148C06B010F01208843002810D000BF15
:103440003D48C06B0121090708433B49C863084652
:10345000C06B09040840009000BF00BF012001902C
:1034600039480068FF2101310840002816D136484C
:103470000068084334490860FEF77CFF054606E013
:10348000FEF778FF401B022801D903205FE62E4893
:103490000068FF21013108400028F1D000BFA0687A
:1034A000012808D124484030C0690121084322493D
:1034B0004031C86120E0A06805280FD11E48403087
:1034C000C069042108431C494031C8610846C069ED
:1034D0000121084318494031C8610DE016484030C9
:1034E000C0694108490014484030C161C0690421E5
:1034F000884311494031C86100BFA068002816D038
:1035000001E040E03EE0FEF735FF054607E0FEF74C
:1035100031FF401B0D49884201D9032017E60648B8
:103520004030C069022108400028F0D01EE0FEF7BC
:1035300021FF054614E00000001002400024F400C2
:10354000A8000020A00000200070004088130000A8
:10355000FEF710FF401B6249884201D90320F6E5BF
:103560006048C069022108400028F1D10198012873
:1035700008D15C484038C06B01210907884359498C
:103580004039C86300BFE06900285AD05548403828
:1035900080683821084010287AD0E069022851D18B
:1035A0005048403800680121090688434D49403998
:1035B0000860FEF7DFFE054606E0FEF7DBFE401B77
:1035C000022801D90320C2E546484038006801219D
:1035D000490608400028F0D1616A206A0843A16AC0
:1035E00009020843E16A0843216B08433D49403919
:1035F000C9683D4A114008433A494039C860084605
:103600000068012109060843364940390860084628
:10361000C0680904084333494039C860FEF7AAFE70
:10362000054606E0FEF7A6FE401B022801D903204E
:103630008DE52C48403800680121490608400028E3
:10364000F0D04AE027484038006801210906884345
:10365000244940390860FEF78DFE054606E0FEF776
:1036600089FE401B022801D9032070E51D4840381F
:1036700000680121490608400028F0D11948403867
:10368000C0681A49084017494039C86025E0FFE77B
:10369000E069012800D15AE512484038C668B107F0
:1036A000890F206A814216D170203040616A8842B9
:1036B00011D17F2000023040A16A090288420AD15C
:1036C0001F2040043040E16A884204D1710F49074D
:1036D000206B814201D0012039E5002037E5000050
:1036E00088130000401002408C80C11FFCFFFEEFD9
:1036F00070B50446002C01D1012070BD606A00281D
:1037000008D1FF2105316068884200D105E0002121
:10371000E16102E00021216161610021A1625D207F
:10372000005D002804D15C200155204600F066F8B9
:1037300002215D20015520680068402188432168EE
:10374000086007210902E068884201D9002501E0EC
:1037500001252D030F210902E068884206D00721C8
:103760000902E068884201D00021A162FF210531F1
:103770006068084021229202A16811400843022299
:10378000216911400843217DC907C90F084312026E
:10379000A169114008433822E169114008438022A1
:1037A000216A114008439201A16A1140084321682F
:1037B0000860A069000C042108401022616A1140D1
:1037C00008430822616B114008430F221202E1688E
:1037D000114008430121090329400843216848603A
:1037E0002068C0690121C90288432168C86100209E
:1037F000206601215D20015500207EE710B586B0CE
:103800000446142101A8FCF7E3FC264920688842FD
:1038100046D100BF24480068891408432249086043
:103820000846006889140840009000BF00BF00BF30
:103830001D484038406B012108431B49403948630B
:103840000846406BC007C00F009000BF00BF00BF1C
:103850000846406B02210843134940394863084633
:10386000406B02210840009000BF00BF0320C0024F
:10387000019002200290002003900490059001A97D
:1038800005200007FEF770FC08200190022002903E
:10389000002003900490059001A90448FEF764FC01
:1038A00006B010BD0030014040100240000400503E
:1038B000FFB583B0044616461D4600200290FF2146
:1038C0000531606888420ED1A06800280BD1042120
:1038D0005D20015533460095049A1146204600F0BC
:1038E000B2F907B0F0BD00BF5C20005D012801D136
:1038F0000220F6E701215C20015500BFFEF73AFDEA
:1039000007465D20005D012802D002200290AAE057
:103910000498002801D0002E02D101200290A2E0DC
:1039200004215D2001550020206604982064442075
:103930000653462006530020A063A087E087E0647A
:10394000206507210902E068884207D9206840689D
:103950000121090388432168486006E02068406827
:10396000012109030843216848600121C903A068B7
:1039700088420CD120680068402188432168086093
:103980002068006801218903884321680860206855
:10399000006840210840402804D02068006808439F
:1039A0002168086007210902E068884226D820E0E3
:1039B00020688068C007C00F00280DD02068007BF9
:1039C000216C0870206C401C20644620005B401E67
:1039D00081B2462001530CE0FEF7CCFCC01BA8428C
:1039E00002D3681C002801D1002D02D103200290CF
:1039F00039E04620005B0028DAD125E020E020688D
:103A00008068C007C00F00280DD02068C068216CF6
:103A10000880206C801C20644620005B401E81B220
:103A2000462001530CE0FEF7A5FCC01BA84202D3C0
:103A3000681C002801D1002D02D10320029012E061
:103A40004620005B0028DAD13A462946204603F09A
:103A5000DBFE002801D020202066206E002801D047
:103A60000120029000BF01215D20015500BF00210F
:103A70005C20015500BF029833E7FFB583B00446D0
:103A800016461D460020029000BF5C20005D012804
:103A900002D1022007B0F0BD01215C20015500BF1A
:103AA000FEF768FC074601965D20005D012802D004
:103AB00002200290BDE00498002801D0002E02D11F
:103AC00001200290B5E003215D2001550020206611
:103AD0000498A063A687E687002020640021442084
:103AE00001534620015300202065E0640121C903F1
:103AF000A06888420CD12068006840218843216872
:103B00000860206800680121890308432168086073
:103B10002068006840210840402804D020680068E0
:103B200008432168086007210902E068884232D909
:103B30006068002802D00198012809D1A06B008894
:103B40002168C860A06B801CA063E08F401EE087E6
:103B50001DE0206880680221084002280AD1A06B7D
:103B600000882168C860A06B801CA063E08F401EA5
:103B7000E0870CE0FEF7FEFBC01BA84202D3681CE6
:103B8000002801D1002D02D10320029051E0E08FE6
:103B90000028DED131E06068002802D001980128B9
:103BA00009D1A06B007821680873A06B401CA0634A
:103BB000E08F401EE0871DE02068806802210840F9
:103BC00002280AD1A06B007821680873A06B401C02
:103BD000A063E08F401EE0870CE0FEF7CBFBC01B2C
:103BE000A84202D3681C002801D1002D02D1032075
:103BF00002901EE0E08F0028DED13A46294620469A
:103C000003F049FE002801D020202066A06800288B
:103C100009D100BF00902068C068009020688068CB
:103C2000009000BF00BF206E002801D0012002904C
:103C300000BF01215D20015500BF00215C2001551E
:103C400000BF029826E7FFB585B004461D460E9ECC
:103C5000012001900020009000BF5C20005D012841
:103C600002D1022009B0F0BD01215C20015500BF46
:103C7000FEF780FB07465D20005D029060680390C0
:103C80000495029801280DD0FF2105310398884240
:103C900005D1A068002802D10298042802D0022091
:103CA0000090FBE00698002804D00798002801D077
:103CB000002D02D101200090F0E05D20005D04287D
:103CC00002D005215D200155002020660798206460
:103CD00046200553442005530698A063E587A58731
:103CE0000020E064206507210902E068884207D9C6
:103CF000206840680121090388432168486006E084
:103D00002068406801210903084321684860206851
:103D1000006840210840402804D02068006808431B
:103D20002168086007210902E068884254D9606868
:103D3000002802D00498012809D1A06B00882168CE
:103D4000C860A06B801CA063E08F401EE0873BE052
:103D50002068806802210840022811D1E08F0028E5
:103D60000ED0019801280BD1A06B00882168C86093
:103D7000A06B801CA063E08F401EE08700200190B4
:103D800020688068C007C00F002812D04620005B62
:103D900000280ED02068C068216C0880206C801C30
:103DA00020644620005B401E81B246200153012062
:103DB0000190FEF7DFFAC01BB04205D3701C00284B
:103DC00002D00320009069E0E08F0028C0D1462097
:103DD000005B0028BCD155E06068002802D0049840
:103DE000012809D1A06B007821680873A06B401CE2
:103DF000A063E08F401EE0873DE0206880680221DC
:103E00000840022811D1E08F00280ED00198012827
:103E10000BD1A06B007821680873A06B401CA063D5
:103E2000E08F401EE0870020019020688068C00776
:103E3000C00F002812D04620005B00280ED020685A
:103E4000007B216C0870206C401C20644620005BC5
:103E5000401E81B24620015301200190FEF78AFAEC
:103E6000C01BB04202D3701C002801D1002E02D129
:103E70000320009012E0E08F0028BED14620005BB6
:103E80000028BAD13A463146204603F004FD002806
:103E900003D0012000902020206600BF01215D207A
:103EA000015500BF00215C20015500BF0098D9E6F4
:103EB000044909680322520291430143014A1160F7
:103EC0007047000000000140042806D10649096936
:103ED00004221143044A116105E0034909690422DF
:103EE0009143014A1161704700E000E070B504465B
:103EF0002546681E0949884201D901200CE0681E48
:103F0000074948610321081F05F0E8F8002004492B
:103F1000886107200861002070BD0000FFFFFF00DE
:103F200000E000E0704770477047000010B503469E
:103F3000002200BF3C20C05C012801D1022010BD3E
:103F400001243C20C45400BF100A0002CC68204366
:103F50000246104603242402A0438C6820430246F4
:103F600010460124A402A0434C6820430246104698
:103F70000124E402A0430C682043024610460124B9
:103F80002403A0430C692043024610460124640325
:103F9000A0434C692043024610460124A403A043D9
:103FA0000C6B2043024610460F242404A0430C8BC4
:103FB0002404204302461C4C1868A04206D1104637
:103FC00001242407A043CC6920430246164C1868FC
:103FD000A04220D110460F242405A0430C8D2405B7
:103FE00020430246104601242406A0430C6A2043C5
:103FF0000246104601246406A0434C6A2043024650
:10400000094C1868A04206D1104601246407A04359
:10401000CC6A204302461868426400BF00243C205A
:10402000C45400BF00208AE7002C014030B502468E
:104030000B4600BF3C20805C012801D1022030BD2E
:1040400001253C20855400BF02253D208554106881
:10405000416810688468184D1068A84206D10F2581
:104060002D050846A84301465868014370250846B7
:10407000A843014618680143106841600E4D10685E
:10408000A84207D00D4D1068A84203D00C4D10680F
:10409000A84207D180252046A843044698680443D7
:1040A0001068846001253D20855400BF00253C2018
:1040B000855400BF0020C2E7002C014000040040EE
:1040C0000040014010B50446002C01D1012010BD74
:1040D0003D20005D002805D100213C2001552046EF
:1040E00000F026F802213D200155211D206803F033
:1040F00057FF01214820015500BF3E2001553F20B8
:1041000001554020015541200155422001554320D1
:10411000015500BF00BF44200155452001554620F0
:1041200001554720015500BF3D2001550020CEE735
:1041300038B504464B492068884216D100BF4A482A
:10414000C06B102108434849C8630846C06B102162
:104150000840009000BF00BF002211461120FEF76A
:1041600045FD1120FEF730FD7BE040492068884284
:1041700016D100BF3C48C06B202108433A49C863B0
:104180000846C06B20210840009000BF00BF0022FD
:1041900011461220FEF72AFD1220FEF715FD60E001
:1041A00033492068884210D100BF2F484030006852
:1041B000C91308432C4940310860084600680121B2
:1041C000C9030840009000BF4BE02A49206888429C
:1041D00031D100BF24484030006801214904084320
:1041E000214940310860084600680121490408401F
:1041F000009000BF00BF2048204908602C20486084
:1042000010211E4881600021C160802101614900A8
:104210004161890081612021C161C9010162FDF70D
:10422000B1FE002801D0FDF780F800BF134961629C
:104230000846846215E012492068884211D100BF07
:10424000094840300068012189040843064940318B
:10425000086008460068012189040840009000BFFA
:1042600000BF38BD001000400010024000140040A4
:104270000020004000440140800002407007002000
:104280000048014001463D20405C012801D001204A
:10429000704702233D2043540868C0680123184337
:1042A0000B68D860114B0868984207D0104B08681B
:1042B000984203D00F4B086898420FD10868826873
:1042C0000D4B1A40062A0FD0D81F82420CD0086826
:1042D0000068012318430B68186005E0086800684F
:1042E000012318430B6818600020D1E7002C01401F
:1042F000000400400040014007000100014608683A
:10430000C068400840000A68D06000BF0868006AC2
:104310000A4A104000280BD10868006A9210104029
:10432000002805D108680068400840000A6810604D
:1043300000BF01223D2042540020704711110000AF
:104340007047704710B50446206800690221084094
:10435000400800281CD02068C06808404008002899
:1043600016D0481F216808610120207720688069E5
:104370008007800F002803D02046FFF7E2FF05E00A
:10438000204600F06FF9204600F078FA00202077F0
:104390002068006904210840800800281DD020689A
:1043A000C06808408008002817D0C8432168086109
:1043B0000220207720688069032109020840002834
:1043C00003D02046FFF7BDFF05E0204600F04AF984
:1043D000204600F053FA0020207720680069082169
:1043E0000840C00800281CD02068C0680840C008E9
:1043F000002816D0C843216808610420207720686F
:10440000C0698007800F002803D02046FFF799FF7E
:1044100005E0204600F026F9204600F02FFA0020A3
:1044200020772068006910210840000900281DD06D
:104430002068C06808400009002817D0C8432168D8
:104440000861082020772068C0690321090208401C
:10445000002803D02046FFF774FF05E0204600F057
:1044600001F9204600F00AFA002020772068006950
:10447000C007C00F01214840484000280CD02068E8
:10448000C068084048404840002805D0C81E216840
:104490000861204600F04AFC20680069802108403D
:1044A000C00900280BD02068C0680840C009002857
:1044B00005D0C843216808612046FFF734FD206815
:1044C0000069FF2101310840000A00280CD0206853
:1044D000C06880210840C009002805D0164821681E
:1044E00008612046FFF71EFD206800694021084052
:1044F000800900280BD02068C06808408009002887
:1045000005D0C84321680861204600F071FD20688D
:10451000006920210840400900280BD02068C068AD
:1045200008404009002805D0C8432168086120469A
:10453000FFF7FAFC10BD0000FFFEFFFF10B586B0CC
:104540000446142101A8FBF743FE40492068884235
:104550001BD100BF3E48406B022108433C494863E1
:104560000846406B02210840009000BF00BF0120B8
:1045700001900220029000200390049001200590F9
:1045800001A93448FDF7F0FD5DE033492068884219
:1045900019D100BF2E48406B022108432C494863C3
:1045A0000846406B02210840009000BF00BF022077
:1045B00001900290002003900490059001A92548E5
:1045C000FDF7D2FD3FE02549206888421CD100BF9D
:1045D0001F48406B012108431D4948630846406B52
:1045E000C007C00F009000BF00BF40200190022014
:1045F000029000200390032004900520059001A95B
:104600000007FDF7B1FD1EE01549206888421AD168
:1046100000BF0F48406B012108430D49486308461D
:10462000406BC007C00F009000BF00BF802001900A
:10463000022002900020039004900520059001A91B
:104640000007FDF791FD06B010BD0000000400401A
:1046500000100240000400500020004000440140CF
:10466000004801407047F8B504460D46164600273D
:1046700000BF3C20005D012801D10220F8BD0121CE
:104680003C20015500BF0C2E54D006DC002E09D072
:10469000042E1ED0082E7ED135E0102E64D0142EAC
:1046A000F9D179E02946206803F064FD206880692B
:1046B00008210843216888612068806904218843B3
:1046C00021688861206880692969084321688861B8
:1046D0007EE02946206803F0A5FD2068806901215D
:1046E000C902084321688861206880690121890224
:1046F0008843216888612068806929690902084324
:104700002168886164E02946206803F0EBFD206899
:10471000C069082108432168C8612068C069042174
:1047200088432168C8612068C069296908432168F5
:10473000C8614DE02946206803F032FE2068C06958
:104740000121C90208432168C8612068C0690121AC
:10475000890288432168C8612068C0692969090203
:1047600008432168C86133E02946206803F058FEF9
:104770002068406D08210843216848652068406D25
:1047800004218843216848652068406D29690843F1
:10479000216848651CE019E02946206803F078FE8E
:1047A0002068406D0121C9020843216848652068DE
:1047B000406D012189028843216848652068406D69
:1047C0002969090208432168486501E0012700BF03
:1047D00000BF00BF00213C20015500BF38464DE717
:1047E00010B50446002C01D1012010BD3D20005D14
:1047F000002805D100213C200155204600F026F874
:1048000002213D200155211D206803F0C9FB012133
:104810004820015500BF3E2001553F200155402052
:10482000015541200155422001554320015500BF4B
:1048300000BF442001554520015546200155472021
:10484000015500BF3D2001550020CEE708B5094ABB
:10485000016891420DD100BF0749C96B0222114383
:10486000054AD1631146C96B02221140009100BF75
:1048700000BF08BD000400400010024070477047B0
:1048800070B504460D46002D02D13E20005D15E0B6
:10489000042D02D13F20005D10E0082D02D1402000
:1048A000005D0BE00C2D02D14120005D06E0102DD3
:1048B00002D14220005D01E04320005D012801D0CB
:1048C000012070BD002D03D102213E2001551AE0C8
:1048D000042D03D102213F20015514E0082D03D1FE
:1048E0000221402001550EE00C2D03D10221412070
:1048F000015508E0102D03D102214220015502E0AC
:1049000002214320015501222946206803F098FB2B
:104910001F49206888420BD01E492068884207D072
:104920001D492068884203D01C492068884201D173
:10493000012000E00020002806D02068406C012102
:10494000C90308432168486411492068884207D098
:1049500013492068884203D00E49206888420FD14D
:10496000206886680F490E40062E0FD0C81F864269
:104970000CD020680068012108432168086005E028
:10498000206800680121084321680860002098E73A
:10499000002C01400040014000440140004801401B
:1049A0000004004007000100FFB583B004460D4637
:1049B000164600200290002D02D13E20005D15E039
:1049C000042D02D13F20005D10E0082D02D14020CF
:1049D000005D0BE00C2D02D14120005D06E0102DA2
:1049E00002D14220005D01E04320005D022801D198
:1049F00007B0F0BD002D02D13E20005D15E0042D72
:104A000002D13F20005D10E0082D02D14020005D62
:104A10000BE00C2D02D14120005D06E0102D02D1EB
:104A20004220005D01E04320005D012828D1002ED6
:104A300002D00698002801D10120D9E7002D03D12A
:104A400002213E2001551DE0042D03D102213F200B
:104A5000015517E0082D03D102214020015511E036
:104A60000C2D03D10221412001550BE0102D03D163
:104A700002214220015505E002214320015501E0B9
:104A80000120B5E7002D06D0042D22D0082D3ED000
:104A90000C2D79D159E06249606AC1626149606A4E
:104AA00001636149606A4163206802463432606A8A
:104AB00001903146069BFDF7C5FA002801D0012080
:104AC00096E72068C0680121490208432168C86050
:104AD0005DE05349A06AC1625249A06A016352492C
:104AE000A06A4163206802463832A06A01903146CC
:104AF000069BFDF7A7FA002801D0012078E720687F
:104B0000C0680121890208432168C8603FE0444928
:104B1000E06AC1624349E06A01634349E06A416374
:104B2000206802463C32E06A01903146069BFDF760
:104B300089FA002801D001205AE72068C0680121C5
:104B4000C90208432168C86021E03549206BC16271
:104B50003449206B01633449206B4163206802466D
:104B60004032206B01903146069BFDF76BFA00281E
:104B700002D001203CE707E02068C068012109035A
:104B800008432168C86002E00120029000BF00BF16
:104B90000298002842D101222946206803F050FAE9
:104BA0002249206888420BD021492068884207D0DA
:104BB00020492068884203D01F492068884201D1DB
:104BC000012000E00020002806D02068406C012170
:104BD000C90308432168486414492068884207D003
:104BE00016492068884203D01149206888420FD1B5
:104BF0002068876812490F40062F0FD0C81F8742D0
:104C00000CD020680068012108432168086005E095
:104C10002068006801210843216808600298E7E6DF
:104C200063800008D380000813810008002C014035
:104C300000400140004401400048014000040040A1
:104C40000700010030B504460D46002229462068C1
:104C500003F0F6F93049206888420BD02F492068CC
:104C6000884207D02E492068884203D02D49206809
:104C7000884201D1012000E00020002814D000BFAC
:104C80002068006A2849084000280CD12068006A82
:104C900089100840002806D12068406C0121C90312
:104CA00088432168486400BF00BF2068006A1E492D
:104CB000084000280BD12068006A891008400028AD
:104CC00005D120680068400840002168086000BFE6
:104CD000002D03D101213E2001551AE0042D03D1FE
:104CE00001213F20015514E0082D03D1012140206E
:104CF00001550EE00C2D03D101214120015508E0A2
:104D0000102D03D101214220015502E00121432051
:104D10000155002030BD0000002C01400040014042
:104D200000440140004801401111000010B5044644
:104D3000984884426FD198480088401C9649088062
:104D400096480078030004F0BBF909061E2D3C4C80
:104D50005B67838EA8009248006840109149086004
:104D60009148007800280DD18B4800880A2809DD79
:104D7000032040038D490860012088490870002005
:104D8000854908808AE084480088142809DB844823
:104D900000688449086002208049087000207E492C
:104DA00008807BE080480078002809D17A48008894
:104DB000052805DD03207949087000207649088020
:104DC0006CE07548008828280ADB754800684010A8
:104DD0007449086004207149087000206E490880F9
:104DE0005CE071480078002809D16B4800880528EC
:104DF00005DD0520694908700020674908804DE0FD
:104E000065480088142805DB0620644908700020E6
:104E10006149088042E042E0614909684810142174
:104E2000FBF7E2F95C49098848435D490968491084
:104E3000081A5C49086058480088142807DB0020DD
:104E4000086007205549087000205349088025E074
:104E500051480088142805DB0820504908700020BC
:104E60004D4908801AE04E49096848101421FBF7A3
:104E7000BBF94949098848434A49086046480088BF
:104E8000142809DB464800684010086001204349A7
:104E9000087000204049088000BF00BF00BF4448A0
:104EA000844275D143480088401C42490880084626
:104EB00000788006800E3F2802D101203E4908700C
:104EC0003C4800780007000F0F281CD180213B4888
:104ED000FDF73FFA01203A4908703A480078052169
:104EE000084005280FD1384803F010FC3749086006
:104EF00008460168364802F0C9FB36490870084682
:104F0000007800F059FD2B4800784007400F072833
:104F100002D1012030490870264800788007800FB0
:104F2000032802D101202D49087022480078C007CB
:104F3000C00F00280CD001202949087021480078B2
:104F400005210840052803D11F49002003F092FBEA
:104F50002448007801281BD12348007800280CD170
:104F600022480068401D2149086008460068FF2863
:104F70000ED301201C4908700AE01C480068401F3D
:104F80001A49086008460068002801D116490870CF
:104F900010BD0000F4050020900000202800002033
:104FA0002000002024000020290000200400002010
:104FB00040060020920000209400002000080050CD
:104FC000950000201900002050000020540000200F
:104FD000F0000020580000209600002097000020DC
:104FE000980000201A000020600000205C000020D3
:104FF0007047014600BF8420405C012801D1022097
:10500000704701238420435400BF24238820435049
:105010000868026808680068400840000B6818606B
:1050200001235B0710469843024600204866086843
:10503000026020238820435000BF00238420435473
:1050400000BF0020DCE77047704770B504460D468E
:1050500000BF8420005D012801D1022070BD012124
:105060008420015500BF2421882001512068066852
:105070002068006840084000216808602068806857
:10508000072149068843284321688860204603F0A9
:10509000EFFB2068066020218820015100BF00211D
:1050A0008420015500BF0020D8E770B504460D46A6
:1050B00000BF8420005D012801D1022070BD0121C4
:1050C0008420015500BF24218820015120680668F2
:1050D00020680068400840002168086020688068F7
:1050E000C000C008284321688860204603F0C0FB48
:1050F0002068066020218820015100BF0021842003
:10510000015500BF0020D9E7704770477047000085
:10511000F0B585B004462068C56920680668206837
:105120008768FA48284003900398002814D120206B
:105130002840002810D020203040002804D1012031
:1051400000073840002807D0606F002802D02046B2
:10515000616F884705B0F0BD039800287ED0EC4809
:105160003840002803D1EB4830400028F6D0E8074B
:10517000C00F00280DD0FF2001303040002808D09B
:1051800001202168086290200059012108439021E4
:1051900008510220284000280CD0F807C00F002832
:1051A00008D0022021680862902000590421084399
:1051B000902108510420284000280CD0F807C00F87
:1051C000002808D00420216808629020005902219C
:1051D00008439021085108202840002810D02020A2
:1051E0003040002803D1CA483840002808D00820A1
:1051F0002168086290200059082108439021085135
:105200000120C002284000280ED001208006304036
:10521000002809D00120C0022168086290200059AE
:1052200020210843902108519020005900285ED089
:105230002020284000280ED020203040002804D113
:10524000012000073840002805D0606F002802D0F8
:105250002046616F88479020005900E048E00290A6
:105260002068806840210840402804D02821029806
:105270000840002835D0204603F056FC206880689E
:1052800040210840402828D100BF03F063FF01906F
:10529000012003F062FF2068806840218843216874
:1052A0008860019803F059FF00BF80200059002852
:1052B0000FD0994980200059816380210859FCF75B
:1052C00083FD002813D0802210591259916B884712
:1052D0000DE02046FFF71AFF09E02046FFF716FF12
:1052E00005E02046FFF712FF00219020015131E731
:1052F000E06E01287ED11020284000287AD01020AE
:1053000030400028FAD010202168086220688068A8
:1053100040210840402876D180200059006840682C
:1053200080B20190019800286CD05C20015B01984C
:10533000814267DD5E210198085380200059006892
:1053400000682021084000284DD100BF03F002FF73
:105350000090012003F001FF20680068FF21013167
:10536000884321680860009803F0F7FE00BF00BF83
:1053700003F0F0FE0090012003F0EFFE206880684B
:105380004008400021688860009803F0E6FE00BFF6
:1053900000BF03F0DFFE0090012003F0DEFE206876
:1053A00080684021884321688860009803F0D5FE1A
:1053B00000BF20218C2001510020E06600BF03F0D7
:1053C000C9FE0090012003F0C8FE2068006810218B
:1053D000884321680860009803F0BFFE00BF802169
:1053E0000859FCF7A5FC022020675C20025B5E20C8
:1053F000005B02E057E006E004E0101A81B22046AC
:10540000FFF721FEA6E65C20015B5E20005B081A28
:1054100080B201905E20005B002843D001980028F4
:1054200040D000BF03F096FE0090012003F095FEEF
:1054300020680068FF2121318843216808600098B6
:1054400003F08BFE00BF00BF03F084FE009001203C
:1054500003F083FE206880682D49C9430840216815
:105460008860009803F079FE00BF20218C20015154
:105470000020E066606700BF03F06CFE0090012032
:1054800003F06BFE206800681021884321680860E3
:10549000009803F062FE00BF0220206720460199B9
:1054A000FFF7D1FD56E601200005284000280CD06A
:1054B000012080053840002807D001200005216820
:1054C00008622046FFF721FE44E68020284000289D
:1054D0000FD080203040002804D10120C005384082
:1054E000002806D0A06F002802D02046A16F884770
:1054F00030E640202840002810D0402030400028CE
:105500000CD0204603F052FB24E600000F080000F8
:105510000100001020010004458A00080120C00598
:105520002840002808D0012080073040002803D000
:105530002046FFF7E9FD0DE601200006284000287F
:1055400007D0F00FC007002803D02046FFF77CFDEE
:1055500000E600BFFEE510B50446002C01D1012095
:1055600010BDA069002800D000E000BF88200059CD
:10557000002805D1002184200155204600F02CF898
:1055800024218820015120680068400840002168DB
:105590000860204603F050FB012800D1E0E7A06A34
:1055A000002802D0204603F097F9206840680921BE
:1055B000C902884321684860206880682A2188439E
:1055C000216888602068006801210843216808601C
:1055D000204603F0F9F9C3E710B58EB00446142154
:1055E00009A8FAF7F5FD1C2102A8FAF7F1FD3049E8
:1055F000206888425AD1012002900020039002A81E
:10560000FDF72AFB002801D0FBF78FFE00BF2948D9
:10561000006801218903084326490860084600689C
:10562000012189030840019000BF00BF00BF21484D
:105630004038406B022108431E4940394863084600
:10564000406B02210840019000BF00BFC0200990BC
:1056500002200A9000200B900C900D9009A916488A
:10566000FCF782FD15481649086033204860102178
:10567000134881600021C1608021016100214161E6
:105680008161C1610162FCF77DFC002801D0FBF75C
:105690004CFE00BF0A48E067846200BF002211464A
:1056A0001B20FDF7A3FA1B20FDF78EFA0EB010BDEC
:1056B0000038014040100240000400506C000240DD
:1056C00060080020FFB585B004460D4617468C20C3
:1056D0000059202874D1002D01D0002F02D10120C3
:1056E00009B0F0BD01210903A068884208D12069F2
:1056F000002805D1E807C00F002801D00120EFE7FE
:1057000000219020015122218C2001510020E066CF
:10571000FCF730FE02905C2007535E20075300BF69
:1057200001210903A06888420AD12069002803D119
:1057300036496020015324E0FF216020015320E01E
:10574000A06800280AD12069002803D1FF21602029
:10575000015316E07F216020015312E00121090767
:10576000A06888420AD12069002803D17F216020E7
:10577000015306E03F216020015302E00021602038
:10578000015300BF6020005B039001210903A06862
:10579000884205D12069002802D10026049502E044
:1057A0002E460020049025E0089800900022202139
:1057B0002046029B03F058FB002802D003208FE70D
:1057C00021E0002E09D12068406A0399084004991D
:1057D00008800498801C049006E02068406A0399C1
:1057E000C9B208403070761C5E20005B401E81B25A
:1057F0005E2001535E20005B0028D5D120218C2043
:10580000015100206CE702206AE70000FF01000060
:10581000F8B504460E46154688200059202855D173
:10582000002E01D0002D01D10120F8BD0121090376
:10583000A068884208D12069002805D1F007C00F70
:10584000002801D00120F0E726655420055356209A
:105850000553002190200151212188200151E06F42
:1058600000281DD01A48E16FC8621A48E16F08632A
:105870001948E16F48630020E16F886323681A4686
:1058800028322B46216DE06FFCF7DCFB002807D0A7
:105890001021902001512021882001510120C4E7CE
:1058A00040202168086200BF03F054FC0746012035
:1058B00003F053FC206880688021084321688860D9
:1058C000384603F04AFC00BF0020AEE70220ACE7F8
:1058D000B78A00081B8B00085D8A00087047704774
:1058E00010B500F005F80149086010BD1000002057
:1058F00070B5002400BF012189031E48FCF720FD7C
:105900000128F8D000251BE0012251031948FCF7BB
:105910002AFD640000BF00BF00BF0022012149032F
:105920001448FCF720FD012189031248FCF708FD0B
:10593000012800D1641C00BF00BF00BF681CC5B2B5
:10594000182DE1DB012251030A48FCF70CFD00BFD2
:1059500000BF00BF0022012149030648FCF703FDF8
:105960000120C0052040002802D0FF20000604438B
:10597000204670BD0004005000BFFEE709480A49F8
:105980000860002048608860C860C86107480862F5
:1059900007484862074808617F20C0054861002029
:1059A0008861704700004842F00000200000C842B3
:1059B00000007F4300002041014948637047000018
:1059C0000020004010B50446002C04D000210448FB
:1059D000FEF756FF03E000210148FFF733F910BD41
:1059E0008C06002010B5084800688069072109026C
:1059F0000840002803D00448FCF733FD02E00248C9
:105A0000FCF775FD10BD00002C03002010B5084800
:105A100000688069072109020840002803D0044873
:105A2000FCF71FFD02E00248FCF761FD10BD00001D
:105A30008003002070B50546AC6AA06B002802D038
:105A40000020A16B8863E06B002802D00020E16B8E
:105A50008863204600F06AFF70BD70B50546AC6AE9
:105A6000206840680121C90308432168486010216B
:105A7000204600F069F970BD70B50546AC6A206833
:105A800000680121C903884321680860608D0028EF
:105A900004D12021204600F08DF81EE0218D606A9F
:105AA00040186062608DFF2802D9FF20208501E048
:105AB000608D2085238D266831462431626AE06B33
:105AC000FCF7C0FA002804D01021204600F03CF971
:105AD00003E04021204600F06DF870BD70B505462A
